{
  "_format": "hh-sol-artifact-1",
  "contractName": "SchoolAttendance",
  "sourceName": "contracts/SchoolAttedance.sol",
  "abi": [
    {
      "inputs": [],
      "stateMutability": "nonpayable",
      "type": "constructor"
    },
    {
      "inputs": [
        {
          "internalType": "address",
          "name": "_teacherAddress",
          "type": "address"
        }
      ],
      "name": "addTeacher",
      "outputs": [],
      "stateMutability": "nonpayable",
      "type": "function"
    },
    {
      "inputs": [
        {
          "internalType": "address",
          "name": "_studentAddress",
          "type": "address"
        }
      ],
      "name": "checkAttendance",
      "outputs": [
        {
          "internalType": "bool",
          "name": "",
          "type": "bool"
        }
      ],
      "stateMutability": "view",
      "type": "function"
    },
    {
      "inputs": [
        {
          "internalType": "address",
          "name": "_studentAddress",
          "type": "address"
        },
        {
          "internalType": "string",
          "name": "_name",
          "type": "string"
        }
      ],
      "name": "enrollStudent",
      "outputs": [],
      "stateMutability": "nonpayable",
      "type": "function"
    },
    {
      "inputs": [],
      "name": "getStudents",
      "outputs": [
        {
          "internalType": "address[]",
          "name": "",
          "type": "address[]"
        }
      ],
      "stateMutability": "view",
      "type": "function"
    },
    {
      "inputs": [
        {
          "internalType": "address",
          "name": "_studentAddress",
          "type": "address"
        }
      ],
      "name": "markAttendance",
      "outputs": [],
      "stateMutability": "nonpayable",
      "type": "function"
    },
    {
      "inputs": [],
      "name": "owner",
      "outputs": [
        {
          "internalType": "address",
          "name": "",
          "type": "address"
        }
      ],
      "stateMutability": "view",
      "type": "function"
    },
    {
      "inputs": [],
      "name": "resetAttendance",
      "outputs": [],
      "stateMutability": "nonpayable",
      "type": "function"
    },
    {
      "inputs": [
        {
          "internalType": "uint256",
          "name": "",
          "type": "uint256"
        }
      ],
      "name": "studentList",
      "outputs": [
        {
          "internalType": "address",
          "name": "",
          "type": "address"
        }
      ],
      "stateMutability": "view",
      "type": "function"
    },
    {
      "inputs": [
        {
          "internalType": "address",
          "name": "",
          "type": "address"
        }
      ],
      "name": "students",
      "outputs": [
        {
          "internalType": "string",
          "name": "name",
          "type": "string"
        },
        {
          "internalType": "bool",
          "name": "isEnrolled",
          "type": "bool"
        },
        {
          "internalType": "bool",
          "name": "hasAttended",
          "type": "bool"
        }
      ],
      "stateMutability": "view",
      "type": "function"
    },
    {
      "inputs": [
        {
          "internalType": "address",
          "name": "",
          "type": "address"
        }
      ],
      "name": "teachers",
      "outputs": [
        {
          "internalType": "bool",
          "name": "isTeacher",
          "type": "bool"
        }
      ],
      "stateMutability": "view",
      "type": "function"
    }
  ],
  "bytecode": "0x608060405234801561001057600080fd5b50336000806101000a81548173ffffffffffffffffffffffffffffffffffffffff021916908373ffffffffffffffffffffffffffffffffffffffff160217905550604051806020016040528060011515815250600260008060009054906101000a900473ffffffffffffffffffffffffffffffffffffffff1673ffffffffffffffffffffffffffffffffffffffff1673ffffffffffffffffffffffffffffffffffffffff16815260200190815260200160002060008201518160000160006101000a81548160ff02191690831515021790555090505061156c806100f56000396000f3fe608060405234801561001057600080fd5b506004361061009e5760003560e01c80638da5cb5b116100665780638da5cb5b14610157578063a6c807a914610175578063dd7488d0146101a7578063f0a47f78146101b1578063f1d064b3146101e15761009e565b806307df1e52146100a3578063261d822f146100d35780633bc6e309146100ef578063528929861461010b5780637df221e914610127575b600080fd5b6100bd60048036038101906100b89190610c4a565b6101ff565b6040516100ca9190610c92565b60405180910390f35b6100ed60048036038101906100e89190610df3565b6102e7565b005b61010960048036038101906101049190610c4a565b61057c565b005b61012560048036038101906101209190610c4a565b610681565b005b610141600480360381019061013c9190610e85565b610852565b60405161014e9190610ec1565b60405180910390f35b61015f610891565b60405161016c9190610ec1565b60405180910390f35b61018f600480360381019061018a9190610c4a565b6108b5565b60405161019e93929190610f5b565b60405180910390f35b6101af610981565b005b6101cb60048036038101906101c69190610c4a565b610b1f565b6040516101d89190610c92565b60405180910390f35b6101e9610b4a565b6040516101f69190611057565b60405180910390f35b6000600160008373ffffffffffffffffffffffffffffffffffffffff1673ffffffffffffffffffffffffffffffffffffffff16815260200190815260200160002060010160009054906101000a900460ff16610290576040517f08c379a0000000000000000000000000000000000000000000000000000000008152600401610287906110c5565b60405180910390fd5b600160008373ffffffffffffffffffffffffffffffffffffffff1673ffffffffffffffffffffffffffffffffffffffff16815260200190815260200160002060010160019054906101000a900460ff169050919050565b60008054906101000a900473ffffffffffffffffffffffffffffffffffffffff1673ffffffffffffffffffffffffffffffffffffffff163373ffffffffffffffffffffffffffffffffffffffff16148061038d5750600260003373ffffffffffffffffffffffffffffffffffffffff1673ffffffffffffffffffffffffffffffffffffffff16815260200190815260200160002060000160009054906101000a900460ff165b6103cc576040517f08c379a00000000000000000000000000000000000000000000000000000000081526004016103c390611131565b60405180910390fd5b600160008373ffffffffffffffffffffffffffffffffffffffff1673ffffffffffffffffffffffffffffffffffffffff16815260200190815260200160002060010160009054906101000a900460ff161561045c576040517f08c379a00000000000000000000000000000000000000000000000000000000081526004016104539061119d565b60405180910390fd5b604051806060016040528082815260200160011515815260200160001515815250600160008473ffffffffffffffffffffffffffffffffffffffff1673ffffffffffffffffffffffffffffffffffffffff16815260200190815260200160002060008201518160000190816104d191906113c9565b5060208201518160010160006101000a81548160ff02191690831515021790555060408201518160010160016101000a81548160ff0219169083151502179055509050506003829080600181540180825580915050600190039060005260206000200160009091909190916101000a81548173ffffffffffffffffffffffffffffffffffffffff021916908373ffffffffffffffffffffffffffffffffffffffff1602179055505050565b60008054906101000a900473ffffffffffffffffffffffffffffffffffffffff1673ffffffffffffffffffffffffffffffffffffffff163373ffffffffffffffffffffffffffffffffffffffff161461060a576040517f08c379a0000000000000000000000000000000000000000000000000000000008152600401610601906114e7565b60405180910390fd5b604051806020016040528060011515815250600260008373ffffffffffffffffffffffffffffffffffffffff1673ffffffffffffffffffffffffffffffffffffffff16815260200190815260200160002060008201518160000160006101000a81548160ff02191690831515021790555090505050565b60008054906101000a900473ffffffffffffffffffffffffffffffffffffffff1673ffffffffffffffffffffffffffffffffffffffff163373ffffffffffffffffffffffffffffffffffffffff1614806107275750600260003373ffffffffffffffffffffffffffffffffffffffff1673ffffffffffffffffffffffffffffffffffffffff16815260200190815260200160002060000160009054906101000a900460ff165b610766576040517f08c379a000000000000000000000000000000000000000000000000000000000815260040161075d90611131565b60405180910390fd5b600160008273ffffffffffffffffffffffffffffffffffffffff1673ffffffffffffffffffffffffffffffffffffffff16815260200190815260200160002060010160009054906101000a900460ff166107f5576040517f08c379a00000000000000000000000000000000000000000000000000000000081526004016107ec906110c5565b60405180910390fd5b60018060008373ffffffffffffffffffffffffffffffffffffffff1673ffffffffffffffffffffffffffffffffffffffff16815260200190815260200160002060010160016101000a81548160ff02191690831515021790555050565b6003818154811061086257600080fd5b906000526020600020016000915054906101000a900473ffffffffffffffffffffffffffffffffffffffff1681565b60008054906101000a900473ffffffffffffffffffffffffffffffffffffffff1681565b60016020528060005260406000206000915090508060000180546108d8906111ec565b80601f0160208091040260200160405190810160405280929190818152602001828054610904906111ec565b80156109515780601f1061092657610100808354040283529160200191610951565b820191906000526020600020905b81548152906001019060200180831161093457829003601f168201915b5050505050908060010160009054906101000a900460ff16908060010160019054906101000a900460ff16905083565b60008054906101000a900473ffffffffffffffffffffffffffffffffffffffff1673ffffffffffffffffffffffffffffffffffffffff163373ffffffffffffffffffffffffffffffffffffffff161480610a275750600260003373ffffffffffffffffffffffffffffffffffffffff1673ffffffffffffffffffffffffffffffffffffffff16815260200190815260200160002060000160009054906101000a900460ff165b610a66576040517f08c379a0000000000000000000000000000000000000000000000000000000008152600401610a5d90611131565b60405180910390fd5b60005b600380549050811015610b1c5760006001600060038481548110610a9057610a8f611507565b5b9060005260206000200160009054906101000a900473ffffffffffffffffffffffffffffffffffffffff1673ffffffffffffffffffffffffffffffffffffffff1673ffffffffffffffffffffffffffffffffffffffff16815260200190815260200160002060010160016101000a81548160ff0219169083151502179055508080600101915050610a69565b50565b60026020528060005260406000206000915090508060000160009054906101000a900460ff16905081565b60606003805480602002602001604051908101604052809291908181526020018280548015610bce57602002820191906000526020600020905b8160009054906101000a900473ffffffffffffffffffffffffffffffffffffffff1673ffffffffffffffffffffffffffffffffffffffff1681526020019060010190808311610b84575b5050505050905090565b6000604051905090565b600080fd5b600080fd5b600073ffffffffffffffffffffffffffffffffffffffff82169050919050565b6000610c1782610bec565b9050919050565b610c2781610c0c565b8114610c3257600080fd5b50565b600081359050610c4481610c1e565b92915050565b600060208284031215610c6057610c5f610be2565b5b6000610c6e84828501610c35565b91505092915050565b60008115159050919050565b610c8c81610c77565b82525050565b6000602082019050610ca76000830184610c83565b92915050565b600080fd5b600080fd5b6000601f19601f8301169050919050565b7f4e487b7100000000000000000000000000000000000000000000000000000000600052604160045260246000fd5b610d0082610cb7565b810181811067ffffffffffffffff82111715610d1f57610d1e610cc8565b5b80604052505050565b6000610d32610bd8565b9050610d3e8282610cf7565b919050565b600067ffffffffffffffff821115610d5e57610d5d610cc8565b5b610d6782610cb7565b9050602081019050919050565b82818337600083830152505050565b6000610d96610d9184610d43565b610d28565b905082815260208101848484011115610db257610db1610cb2565b5b610dbd848285610d74565b509392505050565b600082601f830112610dda57610dd9610cad565b5b8135610dea848260208601610d83565b91505092915050565b60008060408385031215610e0a57610e09610be2565b5b6000610e1885828601610c35565b925050602083013567ffffffffffffffff811115610e3957610e38610be7565b5b610e4585828601610dc5565b9150509250929050565b6000819050919050565b610e6281610e4f565b8114610e6d57600080fd5b50565b600081359050610e7f81610e59565b92915050565b600060208284031215610e9b57610e9a610be2565b5b6000610ea984828501610e70565b91505092915050565b610ebb81610c0c565b82525050565b6000602082019050610ed66000830184610eb2565b92915050565b600081519050919050565b600082825260208201905092915050565b60005b83811015610f16578082015181840152602081019050610efb565b60008484015250505050565b6000610f2d82610edc565b610f378185610ee7565b9350610f47818560208601610ef8565b610f5081610cb7565b840191505092915050565b60006060820190508181036000830152610f758186610f22565b9050610f846020830185610c83565b610f916040830184610c83565b949350505050565b600081519050919050565b600082825260208201905092915050565b6000819050602082019050919050565b610fce81610c0c565b82525050565b6000610fe08383610fc5565b60208301905092915050565b6000602082019050919050565b600061100482610f99565b61100e8185610fa4565b935061101983610fb5565b8060005b8381101561104a5781516110318882610fd4565b975061103c83610fec565b92505060018101905061101d565b5085935050505092915050565b600060208201905081810360008301526110718184610ff9565b905092915050565b7f53747564656e74206973206e6f7420656e726f6c6c6564000000000000000000600082015250565b60006110af601783610ee7565b91506110ba82611079565b602082019050919050565b600060208201905081810360008301526110de816110a2565b9050919050565b7f4e6f7420617574686f72697a6564000000000000000000000000000000000000600082015250565b600061111b600e83610ee7565b9150611126826110e5565b602082019050919050565b6000602082019050818103600083015261114a8161110e565b9050919050565b7f53747564656e7420697320616c726561647920656e726f6c6c65640000000000600082015250565b6000611187601b83610ee7565b915061119282611151565b602082019050919050565b600060208201905081810360008301526111b68161117a565b9050919050565b7f4e487b7100000000000000000000000000000000000000000000000000000000600052602260045260246000fd5b6000600282049050600182168061120457607f821691505b602082108103611217576112166111bd565b5b50919050565b60008190508160005260206000209050919050565b60006020601f8301049050919050565b600082821b905092915050565b60006008830261127f7fffffffffffffffffffffffffffffffffffffffffffffffffffffffffffffffff82611242565b6112898683611242565b95508019841693508086168417925050509392505050565b6000819050919050565b60006112c66112c16112bc84610e4f565b6112a1565b610e4f565b9050919050565b6000819050919050565b6112e0836112ab565b6112f46112ec826112cd565b84845461124f565b825550505050565b600090565b6113096112fc565b6113148184846112d7565b505050565b5b818110156113385761132d600082611301565b60018101905061131a565b5050565b601f82111561137d5761134e8161121d565b61135784611232565b81016020851015611366578190505b61137a61137285611232565b830182611319565b50505b505050565b600082821c905092915050565b60006113a060001984600802611382565b1980831691505092915050565b60006113b9838361138f565b9150826002028217905092915050565b6113d282610edc565b67ffffffffffffffff8111156113eb576113ea610cc8565b5b6113f582546111ec565b61140082828561133c565b600060209050601f8311600181146114335760008415611421578287015190505b61142b85826113ad565b865550611493565b601f1984166114418661121d565b60005b8281101561146957848901518255600182019150602085019450602081019050611444565b868310156114865784890151611482601f89168261138f565b8355505b6001600288020188555050505b505050505050565b7f4f6e6c79206f776e65722063616e206164642061207465616368657200000000600082015250565b60006114d1601c83610ee7565b91506114dc8261149b565b602082019050919050565b60006020820190508181036000830152611500816114c4565b9050919050565b7f4e487b7100000000000000000000000000000000000000000000000000000000600052603260045260246000fdfea26469706673582212209f5ea26dabe4ad35d37942cfbfe1582bdf9a888582672421e76634d326f7587664736f6c63430008180033",
  "linkReferences": {},
  "deployedLinkReferences": {}
}